:1000000045C0000058C0000056C0000054C00000A9
:1000100052C0000050C000004EC000004CC00000A4
:100020004AC0000048C0000046C0000044C00000B4
:1000300042C0000040C000003EC000003CC00000C4
:100040003AC0000038C0000036C0000034C00000D4
:1000500032C0000030C000002EC000002CC00000E4
:100060002AC0000028C0000026C0000024C00000F4
:1000700022C0000020C000001EC000001CC0000004
:100080001AC0000018C0000016C0000011241FBED6
:10009000CFEFD0E1DEBFCDBF11E0A0E0B1E0EAEEEE
:1000A000F1E000E00BBF02C007900D92A031B10754
:1000B000D9F77DD098C0A4CF85B3886085BB8FEC7D
:1000C00097E00197F1F700C0000085B3877F85BBFB
:1000D0008FEC97E00197F1F700C000000895CF93EF
:1000E0008FEF84BB15BAC0E2C5BBE6DFC5BBE4DF5A
:1000F00080E885BBE1DF15BADFDF80EF85BBDCDFA1
:1001000015BADADF80E685BBD7DFCF910895CF93AC
:10011000C82F85BB85B3846085BBCEDFC295C07F09
:10012000C5BB85B3846085BBC7DFCF9108950F93AE
:100130001F93CF93DF938C01C0E0D0E006C0F8019D
:10014000EC0FFD1F8081E3DF2196F8010190002074
:10015000E9F73197E01BF10BCE17DF0780F3DF9152
:10016000CF911F910F910895CF93C82F85BB85B371
:100170008B7F85BBA1DFC295C07FC5BB85B38B7F5D
:1001800085BB9ADFCF9108958FEF81BBA8DF82E016
:10019000EBDF86E0E9DF8CE0E7DF80E8E5DF81E0A8
:1001A000E3CF0895C4CF089581E0DECF0895ECDF5A
:1001B00080E091E0F7DF2FEF89E698E12150804061
:1001C0009040E1F700C00000EFDF88E091E0EADF57
:1001D0002FEF89E698E1215080409040E1F700C080
:0A01E0000000E2DFE5CFF894FFCF46
:1001EA0048616C6C6F6F6F00426C6120626C6100D9
:00000001FF
