:100000000C944A000C94A1000C94A1000C94A10043
:100010000C94A1000C94A1000C94A1000C94A100DC
:100020000C94A1000C94A1000C94A1000C94A100CC
:100030000C94A1000C94A1000C94A1000C94A100BC
:100040000C94A1000C94A1000C94A1000C94A100AC
:100050000C94A1000C94A1000C94A1000C94A1009C
:100060000C94A1000C94A1000C94A1000C94A1008C
:100070000C94A1000C94A1000C94A1000C94A1007C
:100080000C94A1000C94A1000C94A1000100011893
:100090000001460011241FBECFEFD0E1DEBFCDBF6F
:1000A000ECE8F0E040E019C0B791A79137912791B3
:1000B000079107FD0EC097918791EF01F92FE82F67
:1000C0000BBF07900D92A217B307D9F7FE011BBE15
:1000D00004C01D92A217B307E1F7E339F40721F733
:0C00E0000E9485000C947400F894FFCF7F
:1000EC0020E030E008C0EFECF7E03197F1F700C00A
:0E00FC0000002F5F3F4F28173907ACF308951F
:10010A00C1E0D0E008C0CE010E94940088EE93E0DE
:0E011A000E9476002196C730D105ACF3F1CFDC
:100128000197FC01EE0FFF1FEE0FFF1FE050FF4F7E
:0A01380080818ABB82818BBB089591
:040142000C94000019
:100146000C0008000C000400060004000600020073
:080156000A0002000A00080083
:00000001FF
