:1000000045C0000090C00000C1C000005CC00000FE
:100010005AC0000058C0000056C0000054C0000084
:1000200052C0000050C000004EC000004CC0000094
:100030004AC0000048C0000046C0000044C00000A4
:1000400042C0000040C000003EC000003CC00000B4
:100050003AC0000038C0000036C0000034C00000C4
:1000600032C0000030C000002EC000002CC00000D4
:100070002AC0000028C0000026C0000024C00000E4
:1000800022C0000020C000001EC0000011241FBEBE
:10009000CFEFD0E1DEBFCDBF11E0A0E0B1E0E6EFF1
:1000A000F1E000E00BBF02C007900D92A032B10753
:1000B000D9F721E0A0E2B1E001C01D92A232B2075F
:1000C000E1F702D096C09CCF8FEF84BB11BAEAE66D
:1000D000F0E080818F60808389B7836089BF7894E6
:1000E0001092210110922001FFCF20E030E008C0E3
:1000F000EFECF7E03197F1F700C000002F5F3F4FC2
:1001000028173907ACF308958031910524F08091C8
:100110001C0185BB0895880F991FFC01E050FF4F1B
:10012000808185BB08951F920F920FB60F92112404
:100130000BB60F922F933F934F935F936F937F93E1
:100140008F939F93AF93BF93EF93FF938091200181
:100150009091210101969093210180932001D4DF99
:1001600085E090E0C2DFFF91EF91BF91AF919F9149
:100170008F917F916F915F914F913F912F910F9050
:100180000BBE0F900FBE0F901F9018951F920F92ED
:100190000FB60F9211240BB60F922F933F934F93EC
:1001A0005F936F937F938F939F93AF93BF93EF93DF
:1001B000FF9380912001909121010197909321015B
:1001C00080932001A1DF85E090E08FDFFF91EF9128
:1001D000BF91AF919F918F917F916F915F914F915F
:1001E0003F912F910F900BBE0F900FBE0F901F905D
:0601F0001895F894FFCF02
:1001F6003F0006005B004F0066006D007D000700B3
:100206007F006F0077007C0039005E007900710086
:00000001FF
