:1000000045C0000058C0000056C0000054C00000A9
:1000100052C0000050C000004EC000004CC00000A4
:100020004AC0000048C0000046C0000044C00000B4
:1000300042C0000040C000003EC000003CC00000C4
:100040003AC0000038C0000036C0000034C00000D4
:1000500032C0000030C000002EC000002CC00000E4
:100060002AC0000028C0000026C0000024C00000F4
:1000700022C0000020C000001EC000001CC0000004
:100080001AC0000018C0000016C0000011241FBED6
:10009000CFEFD0E1DEBFCDBF11E0A0E0B1E0EEEFE9
:1000A000F0E000E00BBF02C007900D92AA30B1074C
:1000B000D9F711D022C0A4CF20E030E008C0EFEC87
:1000C000F7E03197F1F700C000002F5F3F4F28178E
:1000D0003907ACF308958FEF84BBC0E0D0E009C0CE
:1000E000FE01E050FF4F808185BB88EC90E0E4DFAB
:0E00F0002196C930D105A4F3F0CFF894FFCFCC
:0A00FE000102040810200140080070
:00000001FF
