:100000000C9446000C9478000C9478000C947800C2
:100010000C9478000C9478000C9478000C94780080
:100020000C9478000C9478000C9478000C94780070
:100030000C9478000C9478000C9478000C94780060
:100040000C9478000C9478000C9478000C94780050
:100050000C9478000C9478000C9478000C94780040
:100060000C9478000C9478000C9478000C94780030
:100070000C9478000C9478000C9478000C94780020
:100080000C9478000C9478000C94780011241FBE16
:10009000CFEFD0E1DEBFCDBF0E9452000C945000E4
:0400A000F894FFCF02
:1000A4008FEF81BBC0E0D0E00EC081E090E00C2E69
:1000B40002C0880F991F0A94E2F782BB8AEF90E08E
:0E00C4000E9469002196C830D1057CF3EBCF75
:1000D20020E030E008C0E9EFF0E03197F1F700C02E
:0E00E20000002F5F3F4F28173907ACF3089539
:0400F0000C9400006C
:00000001FF
