:100000000C944A000C94AE000C94AE000C94AE001C
:100010000C94AE000C94AE000C94AE000C94AE00A8
:100020000C94AE000C94AE000C94AE000C94AE0098
:100030000C94AE000C94AE000C94AE000C94AE0088
:100040000C94AE000C94AE000C94AE000C94AE0078
:100050000C94AE000C94AE000C94AE000C94AE0068
:100060000C94AE000C94AE000C94AE000C94AE0058
:100070000C94AE000C94AE000C94AE000C94AE0048
:100080000C94AE000C94AE000C94AE000100013054
:100090000001600011241FBECFEFD0E1DEBFCDBF55
:1000A000ECE8F0E040E019C0B791A79137912791B3
:1000B000079107FD0EC097918791EF01F92FE82F67
:1000C0000BBF07900D92A217B307D9F7FE011BBE15
:1000D00004C01D92A217B307E1F7E339F40721F733
:0C00E0000E9476000C947400F894FFCF8E
:1000EC008FEF8ABB87BB84BB81BBC0E0D0E014C060
:1000FC00FE01EE0FFF1FEC0FFD1FE050FF4F808144
:10010C008BBB808188BB808185BB808182BB8181D8
:10011C0092810E949F002196FE01EE0FFF1FEC0FB3
:10012C00FD1FE050FF4F818192811816190604F3D0
:02013C00DCCF16
:10013E0020E030E008C0E9EFF0E03197F1F700C0C1
:0E014E0000002F5F3F4F28173907ACF30895CC
:04015C000C940000FF
:100160000120030320030720030F20031F20033F68
:1001700020037F2003FF20037F20033F20031F2055
:10018000030F2003072003032003012003000000C6
:00000001FF
