:100000000C9446000C946F000C946F000C946F00DD
:100010000C946F000C946F000C946F000C946F00A4
:100020000C946F000C946F000C946F000C946F0094
:100030000C946F000C946F000C946F000C946F0084
:100040000C946F000C946F000C946F000C946F0074
:100050000C946F000C946F000C946F000C946F0064
:100060000C946F000C946F000C946F000C946F0054
:100070000C946F000C946F000C946F000C946F0044
:100080000C946F000C946F000C946F0011241FBE31
:10009000CFEFD0E1DEBFCDBF0E9461000C945000D5
:0400A000F894FFCF02
:1000A40020E030E008C0EFECF7E03197F1F700C052
:0E00B40000002F5F3F4F28173907ACF3089567
:1000C2008FEF81BB12BA8AEF90E00E94520085E561
:0C00D20082BB8AEF90E00E945200F4CF45
:0400DE000C9400007E
:00000001FF
