S01300004F706472616368742042312E7372656349
S113000045C000004BC0000049C0000047C00000CC
S113001045C0000043C0000041C000003FC00000D4
S11300203DC000003BC0000039C0000037C00000E4
S113003035C0000033C0000031C000002FC00000F4
S11300402DC000002BC0000029C0000027C0000004
S113005025C0000023C0000021C000001FC0000014
S11300601DC000001BC0000019C0000017C0000024
S113007015C0000013C0000011C000000FC0000034
S11300800DC000000BC0000009C0000011241FBEF9
S1130090CFEFD0E1DEBFCDBFADD00AC1B1CF20E0FC
S11300A030E008C0EFECF7E03197F1F700C0000052
S11300B02F5F3F4F28173907ACF308958FEF87BBA5
S11300C087B3877F87BB88B3816088BB82E58DB99E
S11300D008958FB9779BFECF089598B321E030E05F
S11300E002C0220F331F8A95E2F72095292328BBEB
S11300F0089598B321E030E002C0220F331F8A959F
S1130100E2F7292B28BB0895CF93DF93D82FC62F6E
S113011080E0E3DF8D2FDDDF8C2FDBDF80E0E9DFA4
S1130120DF91CF91089580E0D8DF89E0D2DF8FEFAF
S1130130D0DF80E0DEDF80E0D0DF8AE0CADF8FE05E
S1130140C8DF80E0D6DF80E0C8DF8BE0C2DF83E079
S1130150C0DF80E0CEDF80E0C0DF8CE0BADF81E08A
S1130160B8DF80E0C6CF0895CF92DF92EF92FF927E
S11301700F931F93CF93DF93EC010A971CF4C12CC8
S1130180D12C03C0CC24C394D12CC436D10524F083
S11301906894CC24C1F8D12CC83E83E0D8072CF055
S11301A00F2EF3E0CF2ED12CF02D80E096DF8BE0E4
S11301B090DF8C2D8EDF80E09CDF00E010E00EC02D
S11301C0CE016AE070E04DD0E62EF72E682F81E074
S11301D0800F9ADFCE2DDF2D0F5F1F4FC016D10683
S11301E07CF7DF91CF911F910F91FF90EF90DF90FB
S11301F0CF900895CF9381E087BB60DF94DFC1E0A7
S113020009C080E06ADF8C2F64DF80E062DF80E079
S113021070DFCF5FC530A8F388EE93E040DFC4E021
S11302200AC080E05ADF85E08C1B53DF8C2F51DF3E
S113023080E05FDFC150C111F4CFC1E009C080E0AC
S11302404CDF8C2F46DF80E044DF80E052DFCF5F5D
S1130250C530A8F38FE895E087DF81E090E0CF9187
S1130260089597FB072E16F4009406D077FD08D066
S11302700BD007FC05D03EF4909581959F4F0895CF
S1130280709561957F4F0895AA1BBB1B51E107C070
S1130290AA1FBB1FA617B70710F0A61BB70B881F12
S11302A0991F5A95A9F780959095BC01CD010895A1
S10702B0F894FFCFEC
S9030000FC
