:100000000C944C000C94C1000C94C1000C94C100E1
:100010000C94C1000C94C1000C94C1000C94C1005C
:100020000C94C1000C94C1000C94C1000C94C1004C
:100030000C94C1000C94C1000C94C1000C94C1003C
:100040000C94C1000C94C1000C94C1000C94C1002C
:100050000C94C1000C94C1000C94C1000C94C1001C
:100060000C94C1000C94C1000C94C1000C94C1000C
:100070000C94C1000C94C1000C94C1000C94C100FC
:100080000C94C1000C94C1000C94C100010001014A
:10009000000186010101028011241FBECFEFD0E1D3
:1000A000DEBFCDBFECE8F0E040E019C0B791A7910A
:1000B00037912791079107FD0EC097918791EF0126
:1000C000F92FE82F0BBF07900D92A217B307D9F7AE
:1000D000FE011BBE04C01D92A217B307E1F7E83969
:1000E000F40721F70E9496000C947600F894FFCF55
:1000F00083B3811110C080910001813061F41092AE
:10010000000180910101811104C081E0809301010F
:1001100002C01092010183B3813039F48091000153
:0C012000811103C081E08093000108956C
:10012C008FEF81BB14BA80E882BB82E390E00E941F
:10013C00B2000E94780012BA80910101813029F43A
:10014C008AEF90E00E94B20004C088EE93E00E9417
:08015C00B2000E947800E7CF19
:1001640020E030E008C0EFECF7E03197F1F700C091
:0E01740000002F5F3F4F28173907ACF30895A6
:040182000C940000D9
:010186000177
:00000001FF
