:100000000C9446000C944C020C944C020C944C0240
:100010000C944C020C944C020C944C020C944C0228
:100020000C944C020C944C020C944C020C944C0218
:100030000C944C020C944C020C944C020C944C0208
:100040000C944C020C944C020C944C020C944C02F8
:100050000C944C020C944C020C944C020C944C02E8
:100060000C944C020C944C020C944C020C944C02D8
:100070000C944C020C944C020C944C020C944C02C8
:100080000C944C020C944C020C944C0211241FBE94
:10009000CFEFD0E1DEBFCDBF0E9483010C945000B2
:0400A000F894FFCF02
:1000A400CF93DF93CDB7DEB762970FB6F894DEBF78
:1000B4000FBECDBF9A8B898B1A82198277C080E0DC
:1000C40090E0A0E8BFE38B839C83AD83BE8320E0F4
:1000D40030E04AE753E46B817C818D819E810E94EC
:1000E4004502DC01CB018F839887A987BA8720E07A
:1000F40030E040E85FE36F81788589859A850E94C6
:100104003B0288232CF481E090E09C878B873FC0DE
:1001140020E03FEF4FE757E46F81788589859A8522
:100124000E94400218164CF520E030E040E251E411
:100134006B817C818D819E810E944502DC01CB0113
:10014400BC01CD010E945401DC01CB019C878B874B
:100154000FC089E190E09E878D878D859E850197EC
:10016400F1F79E878D878B859C8501979C878B876C
:100174008B859C85892B69F714C06F817885898567
:100184009A850E945401DC01CB019C878B878B8567
:100194009C85988B8F878F8598890197F1F7988B29
:1001A4008F8789819A8101969A83898329813A81EB
:1001B40089899A89281739070CF481CF000062963F
:1001C4000FB6F894DEBF0FBECDBFDF91CF91089577
:1001D4000FC00E94270238F00E942E0220F09523BF
:1001E40011F00C9435020C94490211240C94210250
:1001F4000E94ED0170F3959FC1F3950F50E0551FD8
:10020400629FF001729FBB27F00DB11D639FAA2767
:10021400F00DB11DAA1F649F6627B00DA11D661FB6
:10022400829F2227B00DA11D621F739FB00DA11DD7
:10023400621F839FA00D611D221F749F3327A00D91
:10024400611D231F849F600D211D822F762F6A2F2D
:1002540011249F5750409AF0F1F088234AF0EE0F92
:10026400FF1FBB1F661F771F881F91505040A9F7BF
:100274009E3F510580F00C9435020C9421025F3F9F
:10028400E4F3983ED4F3869577956795B795F795FB
:10029400E7959F5FC1F7FE2B880F911D9695879573
:0402A40097F9089529
:1002A8000E94F50188F09F5798F0B92F9927B75108
:1002B800B0F0E1F0660F771F881F991F1AF0BA9502
:1002C800C9F714C0B13091F00E942002B1E008953E
:1002D8000C942002672F782F8827B85F39F0B93F30
:1002E800CCF3869577956795B395D9F73EF49095B5
:0E02F8008095709561957F4F8F4F9F4F0895B1
:10030600CF93DF93CDB7DEB781E390E02FEFFC010B
:10031600208384E390E0FC01108283E390E0FC01FB
:1003260080818130D1F787E090E00E94CB018AEF8F
:1003360090E00E94520087E090E00E94CB018AEF95
:0803460090E00E945200E9CF93
:10034E00990F0008550FAA0BE0E8FEEF16161706D8
:10035E00E807F907C0F012161306E407F50798F040
:10036E00621B730B840B950B39F40A2661F0232B59
:10037E00242B252B21F408950A2609F4A140A695D5
:08038E008FEF811D811D089510
:10039600CF93DF9300D0CDB7DEB79A83898382E30C
:1003A60090E0FC018081282F30E089819A8128170E
:1003B600390729F482E390E0FC01808105C082E3DD
:1003C60090E02981FC01208300000F900F90DF91BF
:0403D600CF91089526
:1003DA0057FD9058440F551F59F05F3F71F04795EC
:1003EA00880F97FB991F61F09F3F79F087950895D1
:1003FA00121613061406551FF2CF4695F1DF08C0F0
:10040A00161617061806991FF1CF8695710561050C
:04041A0008940895A5
:10041E00092E0394000C11F4882352F0BB0F40F404
:10042E00BF2B11F460FF04C06F5F7F4F8F4F9F4F44
:02043E0008951F
:0E044000E894BB2766277727CB0197F908952C
:0E044E0000240A9416161706180609060895CB
:0E045C0000240A9412161306140605060895CD
:0C046A0097F99F6780E870E060E008955B
:0A0476000E94A70108F481E0089538
:0A0480000E94A70108F48FEF089511
:08048A000E94EA000C940F022D
:060492009FEF80EC0895CD
:040498000C940000C0
:00000001FF
