:100000000C9446000C9452000C9467000C949E00D3
:100010000C949E000C949E000C949E000C949E00E8
:100020000C949E000C949E000C949E000C949E00D8
:100030000C949E000C949E000C949E000C949E00C8
:100040000C949E000C949E000C949E000C949E00B8
:100050000C949E000C949E000C949E000C949E00A8
:100060000C949E000C949E000C949E000C949E0098
:100070000C949E000C949E000C949E000C949E0088
:100080000C949E000C949E000C949E0011241FBEA4
:10009000CFEFD0E1DEBFCDBF0E947C000C945000BA
:0400A000F894FFCF02
:1000A4001F920F920FB60F9211248F9385B380384D
:1000B40019F481E085BB03C085B3880F85BB8F919C
:0A00C4000F900FBE0F901F901895CB
:1000CE001F920F920FB60F9211248F9385B381302A
:1000DE0019F480E885BB03C085B3869585BB8F91E7
:0A00EE000F900FBE0F901F901895A1
:1000F8008FEF84BB11BA81E085BBEAE6F0E080812E
:100108008F60808389B7836089BF78948AE090E0A4
:060118000E948F00FBCFE6
:10011E0020E030E008C0EFECF7E03197F1F700C0D7
:0E012E0000002F5F3F4F28173907ACF30895EC
:04013C000C9400001F
:00000001FF
