:1000000045C0000060C000005EC000005CC0000091
:100010005AC0000058C0000056C0000054C0000084
:1000200052C0000061C000004EC000004CC0000083
:100030004AC0000048C0000046C0000044C00000A4
:1000400042C0000040C000003EC000003CC00000B4
:100050003AC0000038C0000036C0000034C00000C4
:1000600032C0000030C000002EC000002CC00000D4
:100070002AC0000028C0000026C0000024C00000E4
:1000800022C0000020C000001EC0000011241FBEBE
:10009000CFEFD0E1DEBFCDBF11E0A0E0B1E0E2E7FD
:1000A000F1E000E00BBF02C007900D92A230B10753
:1000B000D9F721E0A2E0B1E001C01D92A430B2075F
:1000C000E1F702D054C09CCF8AEF83BD80E887BFA0
:1000D0008FEF81BB78948DE085BD8FE19EE4019721
:1000E000F1F700C00000F9CF1F920F920FB60F92E8
:1000F00011242F933F938F939F93809102019091AE
:100100000301019690930301809302018F309105C2
:1001100089F420910001309101012130310551F421
:10012000109203011092020112BA10920101109272
:10013000000114C0499791F4809100019091010150
:10014000892B61F480E882BB1092030110920201B6
:1001500081E090E090930101809300019F918F9145
:100160003F912F910F900FBE0F901F901895F8940C
:02017000FFCFBF
:0201720001008A
:00000001FF
