S01300004F706472616368742042342E7372656346
S113000045C000004BC0000049C0000047C00000CC
S113001045C0000043C0000041C000003FC00000D4
S11300203DC000003BC0000039C0000037C00000E4
S113003035C0000033C0000031C000002FC00000F4
S11300402DC000002BC0000029C0000027C0000004
S113005025C0000023C0000021C000001FC0000014
S11300601DC000001BC0000019C0000017C0000024
S113007015C0000013C0000011C000000FC0000034
S11300800DC000000BC0000009C0000011241FBEF9
S1130090CFEFD0E1DEBFCDBF4BD062C0B1CF85B3CF
S11300A0886085BB8FEC97E00197F1F700C00000F2
S11300B085B3877F85BB8FEC97E00197F1F700C08C
S11300C000000895CF938FEF84BB15BAC0E2C5BB7F
S11300D0E6DFC5BBE4DF80E885BBE1DF15BADFDF1F
S11300E080EF85BBDCDF15BADADF80E685BBD7DFBE
S11300F0CF910895CF93C82F85BB85B38B7F85BBE4
S1130100CEDFC295C07FC5BB85B38B7F85BBC7DF00
S1130110CF9108958FEF81BBD5DF82E0EBDF86E0DE
S1130120E9DF8CE0E7DF80E8E5DF81E0E3CF0895F5
S1130130109261008FEF8ABB87BBECDF81E687B941
S113014086EE86B984B188BB85B18BBB2FEF84E37F
S11301509CE0215080409040E1F700C00000F2CFC5
S1070160F894FFCF3D
S9030000FC
